:100000000C9462000C948A000C948A000C948A0070
:100010000C948A000C948A000C948A000C948A0038
:100020000C948A000C948A000C948A000C948A0028
:100030000C948A000C948A000C948A000C948A0018
:100040000C945F040C948A000C942D040C94070407
:100050000C948A000C948A000C948A000C948A00F8
:100060000C948A000C948A000000000024002700F1
:100070002A0000000000250028002B0000000000DE
:1000800023002600290004040404040404040202DA
:100090000202020203030303030301020408102007
:1000A0004080010204081020010204081020000012
:1000B0000008000201000003040700000000000027
:1000C0000000910911241FBECFEFD8E0DEBFCDBFE5
:1000D00012E0A0E0B1E0E0E2F4E102C005900D9290
:1000E000AC38B107D9F723E0ACE8B2E001C01D920B
:1000F000AD35B207E1F710E0C2E6D0E004C02197C9
:10010000FE010E94080AC136D107C9F70E94A9045E
:100110000C940E0A0C940000CF93DF93E4E1F1E01D
:1001200020813181C9010496CCE0D0E0BE010E945B
:10013000BE0993838283C9010796BE010E94BE094E
:1001400095838483DF91CF910895CF93DF93E4E18A
:10015000F1E020813181C9010396CCE0D0E0BE01FD
:100160000E94BE0993838283C9010696BE010E9444
:10017000BE0995838483DF91CF910895E4E1F1E096
:10018000808191810A966CE070E00E94BE0997839D
:1001900086830895AF92BF92CF92DF92EF92FF9243
:1001A0000F931F93CF93DF936C017B018B01040F9F
:1001B000151FEB015E01AE18BF08C017D10759F03B
:1001C0006991D601ED91FC910190F081E02DC6017D
:1001D0000995892B79F7C501DF91CF911F910F9177
:1001E000FF90EF90DF90CF90BF90AF900895FC010B
:1001F000538D448D252F30E0842F90E0821B930B8C
:10020000541710F0CF96089501970895FC01918D31
:10021000828D981761F0A28DAE0FBF2FB11D5D9634
:100220008C91928D9F5F9F73928F90E008958FEFD6
:100230009FEF0895FC01918D828D981731F0828D8A
:10024000E80FF11D858D90E008958FEF9FEF0895E1
:10025000FC01918D228D892F90E0805C9F4F821B45
:1002600091098F739927089580EC92E00E942801EC
:1002700021E0892B09F420E0822F089580E090E0AE
:10028000892B29F00E94340181110C9400000895FB
:10029000FC01A48DA80FB92FB11DA35ABF4F2C91FB
:1002A000848D90E001968F739927848FA689B789F2
:1002B0002C93A089B1898C91837080648C93938DE9
:1002C000848D981306C00288F389E02D80818F7D8C
:1002D00080830895EF92FF920F931F93CF93DF9344
:1002E000EC0181E0888F9B8D8C8D98131AC0E88972
:1002F000F989808185FF15C09FB7F894EE89FF8941
:100300006083E889F98980818370806480839FBFDE
:1003100081E090E0DF91CF911F910F91FF90EF90DE
:100320000895F62E0B8D10E00F5F1F4F0F731127EE
:10033000E02E8C8D8E110CC00FB607FCFACFE88929
:10034000F989808185FFF5CFCE010E944801F1CF68
:10035000EB8DEC0FFD2FF11DE35AFF4FF0829FB79D
:10036000F8940B8FEA89FB8980818062CFCFCF938D
:10037000DF93EC01888D8823B9F0AA89BB89E889CD
:10038000F9898C9185FD03C0808186FD0DC00FB673
:1003900007FCF7CF8C9185FFF2CF808185FFEDCFF1
:1003A000CE010E944801E9CFDF91CF9108958330BB
:1003B00081F028F4813099F08230A9F008958730D7
:1003C000A9F08830C9F08430B1F4809180008F7D2D
:1003D00003C0809180008F7780938000089584B55A
:1003E0008F7784BD089584B58F7DFBCF8091B00059
:1003F0008F778093B00008958091B0008F7DF9CF02
:100400001F93CF93DF93282F30E0F901E255FF4F80
:100410008491F901E656FF4FD491F901EA57FF4F55
:10042000C491CC23A9F0162F81110E94D701EC2F83
:10043000F0E0EE0FFF1FEE58FF4FA591B4918FB77C
:10044000F894EC91111108C0D095DE23DC938FBF96
:10045000DF91CF911F910895DE2BF8CFCF93DF93DB
:1004600090E0FC01E656FF4F24918A579F4FFC0114
:1004700084918823C9F090E0880F991FFC01E85906
:10048000FF4FA591B491FC01EE58FF4FC591D49157
:1004900061110DC09FB7F8948C91209582238C93A5
:1004A0008881282328839FBFDF91CF9108956230F0
:1004B00051F49FB7F8943C91822F809583238C93BD
:1004C000E8812E2BEFCF8FB7F894EC912E2B2C9345
:1004D0008FBFEACFCF93DF93EC0161E08AE00E9407
:1004E0002E02209731F460E08AE0DF91CF910C94E6
:1004F0000002CF3FD10511F461E0F6CFE8EBF0E068
:10050000E491E33029F140F4E130B1F0E230D9F088
:10051000C038D1058CF7E7CFE73021F1E83051F151
:10052000E430B1F780918000806280938000D093A6
:100530008B00C0938A0004C084B5806884BDC7BDA9
:10054000DF91CF91089584B5806284BDC8BDF8CF96
:1005500080918000806880938000D0938900C09350
:100560008800EECF8091B00080688093B000C09387
:10057000B300E6CF8091B00080628093B000C0935A
:10058000B400DECF3FB7F89480919102909192022F
:10059000A0919302B091940226B5A89B05C02F3F6D
:1005A00019F00196A11DB11D3FBFBA2FA92F982F99
:1005B0008827BC01CD01620F711D811D911D42E094
:1005C000660F771F881F991F4A95D1F708958F925C
:1005D0009F92AF92BF92CF92DF92EF92FF924B0128
:1005E0005C010E94C2026B017C010E94C2026C1974
:1005F0007D098E099F09683E734081059105A8F326
:1006000021E0821A9108A108B10888EEC80E83E0A3
:10061000D81EE11CF11C81149104A104B10429F736
:10062000FF90EF90DF90CF90BF90AF909F908F9012
:100630000895E4E1F1E09C01265F3F4FDC014D911C
:100640005D91CD0141935193A217B307B9F7089576
:10065000EF92FF920F931F93CF93DF930091990234
:1006600010919A02FC01C4E1D1E09C01265F3F4F4A
:100670008CE0E82EF12C8191919197FD05C0800FBF
:10068000911FB7010E94BE09998388832296E217C1
:10069000F30789F7DF91CF911F910F91FF90EF90B2
:1006A0000895CF93DF93D82FC8E06D2F661F66277C
:1006B000661F8BE00E940002DD0F61E08CE00E946B
:1006C000000260E08CE00E940002C15071F7DF91EF
:1006D000CF910895FC0101900020E9F73197AF0117
:1006E000481B590BBC0180EC92E00C94CA000097A7
:1006F00011F00C946A0390E080E008958F929F922D
:10070000AF92BF92CF92DF92EF92FF920F931F931F
:10071000CF93DF93CDB7DEB7A1970FB6F894DEBFC6
:100720000FBECDBF6B017C01F7FE41C06DE280ECD6
:1007300092E00E946A018C0122273327A9012C191B
:100740003D094E095F0919A2CE0181967C019AE00C
:10075000892E912CA12CB12CCA01B901A5019401BB
:100760000E94D209605DF70162937F012115310576
:100770004105510589F790E080E0309719F0CF01ED
:100780000E946A03800F911FA1960FB6F894DEBFF6
:100790000FBECDBFDF91CF911F910F91FF90EF90D2
:1007A000DF90CF90BF90AF909F908F900895AC0155
:1007B0009B0119A28E010F5D1F4F8AE0C82ED12C1C
:1007C000E12CF12CCA01B901A70196010E94D209BE
:1007D000605DF80162938F012115310541055105D6
:1007E00089F790E080E0309779F2CF010E946A03A8
:1007F000CBCFCF93DF930E946A03EC0182EF91E0AD
:100800000E946A038C0F9D1FDF91CF9108951F9264
:100810000F920FB60F9211242F933F934F935F9334
:100820006F937F938F939F93AF93BF93EF93FF93B8
:1008300080EC92E00E944801FF91EF91BF91AF914F
:100840009F918F917F916F915F914F913F912F91E8
:100850000F900FBE0F901F9018951F920F920FB61A
:100860000F9211242F938F939F93EF93FF93E09117
:10087000D002F091D1028081E091D602F091D702AE
:1008800082FD1BC090818091D9028F5F8F73209170
:10089000DA02821741F0E091D902F0E0E054FD4F16
:1008A000958F8093D902FF91EF919F918F912F9116
:1008B0000F900FBE0F901F9018958081F4CF1F925C
:1008C0000F920FB60F9211242F933F938F939F9304
:1008D000AF93BF9380918D0290918E02A0918F0271
:1008E000B091900230918C0223E0230F2D3758F500
:1008F0000196A11DB11D20938C0280938D029093CF
:100900008E02A0938F02B0939002809191029091F9
:100910009202A0919302B09194020196A11DB11D83
:100920008093910290939202A0939302B0939402C9
:10093000BF91AF919F918F913F912F910F900FBEDB
:100940000F901F90189526E8230F0296A11DB11D48
:10095000D2CFCF93DF931F92CDB7DEB7789484B513
:10096000826084BD84B5816084BD85B5826085BDAB
:1009700085B5816085BD80916E00816080936E0039
:10098000109281008091810082608093810080912B
:1009900081008160809381008091800081608093DC
:1009A00080008091B10084608093B1008091B0009C
:1009B00081608093B00080917A00846080937A0097
:1009C00080917A00826080937A0080917A008160C1
:1009D00080937A0080917A00806880937A001092E8
:1009E000C10064E670E080E090E00E94E702E091E0
:1009F000D002F091D10282E08083E091CC02F091AC
:100A0000CD021082E091CE02F091CF028FEC808374
:100A10001092D802E091D402F091D50286E0808352
:100A2000E091D202F091D302808180618083E091D5
:100A3000D202F091D302808188608083E091D2025B
:100A4000F091D302808180688083E091D202F0919E
:100A5000D30280818F7D808385EF91E00E94F9032E
:100A600080918100887F81608093810061E089E0CE
:100A70000E942E0261E088E00E942E0261E087E081
:100A80000E942E0261E086E00E942E0262E085E074
:100A90000E942E0262E084E00E942E0262E083E067
:100AA0000E942E0262E082E00E942E0261E08DE050
:100AB0000E942E0261E08BE00E942E0261E08CE039
:100AC0000E942E0280919502909196020E946A02E5
:100AD00088E092E00E94F903AA24A394B12CB0E02C
:100AE0002B2EB0E03B2E65E070E080E090E00E94AD
:100AF000E7020091BE021091BF020F5F1F4F1093DB
:100B0000BF020093BE02AEE98A2EA2E09A2EF40143
:100B1000119211921782168217861686178A168AE4
:100B200022E0E63AF207A1F7F8E3EF2EF1E0FF2E1C
:100B3000D7015C90B2E0EB0EF11C61E0852D0E94C4
:100B40002E0260E0852D0E940002E0E36E2EE1E0BF
:100B50007E2ED12CC12CF301219131913F013327FD
:100B6000F901E255FF4F8491F901E656FF4F949148
:100B70009983F901EA57FF4F449041107EC0F40178
:100B8000EC0DFD1DB182A082B2E0CB0ED11CE8E0DD
:100B9000CE16D10401F761E0852D0E94000260E0CD
:100BA000852D0E942E02F8E08F0E911C20E431E08A
:100BB0002E153F0509F0BCCFA091A402B091A5026B
:100BC000E091AC02F091AD02109721F088EE91E037
:100BD000309769F46091B4027091B502309709F4CE
:100BE0005DC06115710509F45CC08EED91E00E9455
:100BF00028030E948C000E94BE0004E111E0AAE0DC
:100C0000B1E0F801219131918D919D91281739071B
:100C100009F078C221E0EE31F207A1F78091BE021F
:100C20009091BF022091970230919802821B930B02
:100C30000697BCF08091950290919602883C9105B0
:100C400081F0E0E7F1E0D8012D913D918D01819196
:100C500091912817390709F059C3B1E00E311B07EC
:100C600091F72114310409F43ECF0E943401882306
:100C700009F439CF0E94000032CF81110E94D701C0
:100C8000E42DF0E0EE0FFF1FE458FF4FA591B49163
:100C9000EC91A981EA2309F472CF76CF6115710531
:100CA00019F5E090A202F090A3024091AA0250919F
:100CB000AB02E114F10409F52091B2023091B302C4
:100CC0004115510501F58091BA029091BB022115A1
:100CD0003105F9F4009711F5AB2B29F5EF2B09F449
:100CE0007BC08EED91E021C08091BC029091BD024D
:100CF000892BB9F284ED91E07ACF41155105E1F2EB
:100D00008AEC91E074CF21153105E9F280EC91E095
:100D10006ECF009709F386EB91E069CFAB2BF1F230
:100D20008CEA91E064CF88EE91E00E9428030E9453
:100D30008C006091A0027091A1026115710539F0DB
:100D400080919E0290919F02892B09F013C14091DE
:100D5000A8025091A9024115510509F00EC1209138
:100D6000B0023091B1022115310509F01DC1809109
:100D7000B8029091B902009709F036C1672B09F4C7
:100D80003DC12091140130911501C90104966CE018
:100D900070E00E94BE09409116015091170148175A
:100DA000590709F099C0C90107966CE070E00E94EC
:100DB000BE0940911801509119014817590709F0CF
:100DC0008BC0C90103966CE070E00E94BE0990934D
:100DD00017018093160111CF672B19F084ED91E074
:100DE000A4CF6091BC027091BD02672B19F082EA1A
:100DF00091E09BCFEF2839F08AEC91E00E94280324
:100E00000E94A50096CF452B91F080EC91E00E94C6
:100E10002803809114019091150103966CE070E015
:100E20000E94BE09909317018093160182CF232B55
:100E300019F086EB91E0EBCF892B19F08CEA91E069
:100E4000E6CF2091A0023091A1022115310531F0A9
:100E50008091A8029091A902892BD1F580919E02E0
:100E600090919F02892BD9F54091B0025091B10227
:100E700041155105F1F58091AE029091AF020097B6
:100E800009F041C06091A8027091A902672B09F096
:100E900044C0232B09F049C02091A6023091A7023B
:100EA000232B09F4AACE892B09F4A7CE80919C02AA
:100EB00090919D02D801A81BB90B159724F080E0F2
:100EC00091E00E94190310939D0200939C0295CE1D
:100ED00088E991E00E9428030E948C008ECE8091C8
:100EE000A6029091A702892B09F4BECF8EE891E06B
:100EF000F1CF8091B8029091B902892B09F4BBCF50
:100F000084E891E0E7CF6091B6027091B702672B59
:100F100009F4B8CF8AE791E0DDCF452B09F4B9CFCA
:100F200080E791E00E94190368CE2091B8023091C9
:100F3000B902232B09F4B0CF80919C0290919D02BD
:100F4000081B190B0530110554F08EE192E00E9448
:100F5000770380919B0291E0892780939B02809187
:100F6000BE029091BF0290939D0280939C028AE002
:100F700091E0D8CF0E94A5003ECE8091A60290912C
:100F8000A702892B09F4EBCE0E94A50080911401E1
:100F90009091150109966CE070E00E94BE09909353
:100FA0001B0180931A0129CE8091AE029091AF026D
:100FB000892B09F4DCCE2091140130911501C9016F
:100FC00004966CE070E00E94BE0990931701809334
:100FD0001601C90108966CE070E00E94BE0990936A
:100FE00019018093180109CEE091B602F091B70281
:100FF000EF2B09F4C3CE0E94A500FFCD452B31F0A5
:1010000080911401909115010596DDCE232B71F08E
:1010100080911401909115010E966CE070E00E9491
:10102000BE0990931D0180931C01E7CD20919E0283
:1010300030919F02232B09F0DCCD2091A602309144
:10104000A702232B71F08091140190911501039652
:101050006CE070E00E94BE09909317018093160126
:10106000CACD2091AE023091AF02232B41F00E94F5
:101070008C0080911401909115010B968CCF2091DA
:10108000B6023091B702232B81F0209114013091E8
:101090001501C90103966CE070E00E94BE099093AF
:1010A000170180931601C901E8CF892B09F4A5CD5A
:1010B0008091BE029091BF0220919C0230919D02CE
:1010C000821B930B05970CF44ACF81E392E00E94B8
:1010D0007703E0911401F0911501EE0FFF1FE85A1C
:1010E000FE4F808191810E9477038091140190913D
:1010F00015016CE070E00E94BE0990939A02809303
:1011000099022DCF6091BE027091BF027093980238
:101110006093970280910A0190910B0190930101D5
:101120008093000180910C0190910D019093030137
:101130008093020180910E0190910F01909305011F
:101140008093040180911001909111019093070107
:1011500080930601809112019091130190930901EF
:1011600080930801072E000C880B990B0E947E03C8
:1011700081E492E00E94770384E1E82E81E0F82E7A
:10118000F701819191917F0197FD0DC0880F991F03
:10119000FC01E85AFE4F808191810E94770381E42F
:1011A00092E00E9477032CE131E02E153F0541F7D4
:1011B00082EF91E00E946A031092960210929502CB
:1011C00090E080E00E946A0244E1C42E41E0D42E07
:1011D000F12CE12CD6018D919D916D0197FD2CC0D4
:1011E000880F991FFC01E05CFE4FC501008002C022
:1011F000880F991F0A94E2F7E80EF91E83E492E043
:101200000E947703F60132970190F081E02DEE0FF6
:10121000FF1FE05CFE4FB501008002C0660F771F24
:101220000A94E2F7072E000C880B990B0E947E03AC
:1012300082EF91E00E946A03BEE1CB16B1E0DB06CB
:1012400049F6F801619171918F01072E000C880B0E
:10125000990B0E947E0381E492E00E9477032EE1C5
:1012600031E02017310769F782EF91E00E946A03AD
:1012700060E08DE00E9400028F2D0E9451038E2DB0
:101280000E94510361E08DE00E9400028BE492E035
:101290000E94F903809114019091150190930B0124
:1012A00080930A01809116019091170190930D018E
:1012B00080930C01809118019091190190930F0176
:1012C00080930E0180911A0190911B01909311015E
:1012D0008093100180911C0190911D019093130146
:1012E0008093120180919B02882309F4BACC8FEF7E
:1012F00090E00E946A0264E170E080E090E00E9469
:10130000E70290E080E00E946A02ABCC8DE592E0BB
:101310000E94F90388EC90E09093960280939502E6
:10132000F2CFE0ECF2E01382128288EE93E0A0E0CC
:10133000B0E084839583A683B78382E291E09183B2
:10134000808385EC90E09587848784EC90E0978794
:10135000868780EC90E0918B808B81EC90E0938B82
:10136000828B82EC90E0958B848B86EC90E0978B5F
:10137000868B118E128E138E148E089597FB072E76
:1013800016F4009407D077FD09D00E94F40907FCF9
:1013900005D03EF4909581959F4F08957095619585
:1013A0007F4F0895A1E21A2EAA1BBB1BFD010DC0A1
:1013B000AA1FBB1FEE1FFF1FA217B307E407F50705
:1013C00020F0A21BB30BE40BF50B661F771F881FE1
:1013D000991F1A9469F760957095809590959B0177
:1013E000AC01BD01CF010895AA1BBB1B51E107C091
:1013F000AA1FBB1FA617B70710F0A61BB70B881FA5
:10140000991F5A95A9F780959095BC01CD01089533
:10141000EE0FFF1F0590F491E02D0994F894FFCF93
:10142000FFFFFFFFFFFFFFFFFFFFFFFFFFFFFFFFCC
:10143000FFFFFFFFFFFFFFFFFFFFFFFFFFFF0000BA
:1014400000006A01CA00F700B701280106011A016D
:101450000500040003000200090008000700060060
:1014600000000B000A000900080007000600050044
:1014700004000300020001006F0271027402760290
:1014800079027B027D0280028202850287028A0243
:10149000FFFFFFFFFFFFFFFFFFFF01000500080048
:1014A000FFFFFFFF06000A000100FFFFFFFF08002B
:1014B00000000300FFFFFFFF030007000A00FFFF1B
:1014C000FFFF0A0002000500FFFFFFFF0200060009
:1014D0000900FFFFFFFF090001000400FFFFFFFFFD
:1014E000040008000B00FFFFFFFF0B0003000600D5
:1014F000FFFFFFFF050009000000FFFFFFFF0000E6
:1015000004000700FFFFFFFF07000B000200FFFFC2
:10151000FFFF0D0A0053657474696E6720757020B3
:1015200070696E732E2E2E0046696E69736865644D
:101530002077697468207365747570282900546F6A
:1015400067676C696E67206175746F5F706C617935
:10155000004368616E67696E67206B657920746F00
:101560003A2000416464696E67200053657420630B
:10157000757272656E742063686F7264005365746F
:1015800074696E67204D49445F504F574552004380
:101590000044620044004562004500460047620086
:0C15A0004700416200410042620042002E
:107E0000112484B714BE81FFF0D085E080938100F7
:107E100082E08093C00088E18093C10086E0809377
:107E2000C20080E18093C4008EE0C9D0259A86E02C
:107E300020E33CEF91E0309385002093840096BBD3
:107E4000B09BFECF1D9AA8958150A9F7CC24DD24C4
:107E500088248394B5E0AB2EA1E19A2EF3E0BF2EE7
:107E6000A2D0813461F49FD0082FAFD0023811F036
:107E7000013811F484E001C083E08DD089C08234E0
:107E800011F484E103C0853419F485E0A6D080C0E4
:107E9000853579F488D0E82EFF2485D0082F10E0AE
:107EA000102F00270E291F29000F111F8ED06801E7
:107EB0006FC0863521F484E090D080E0DECF843638
:107EC00009F040C070D06FD0082F6DD080E0C81688
:107ED00080E7D80618F4F601B7BEE895C0E0D1E017
:107EE00062D089930C17E1F7F0E0CF16F0E7DF06D8
:107EF00018F0F601B7BEE89568D007B600FCFDCFD4
:107F0000A601A0E0B1E02C9130E011968C91119780
:107F100090E0982F8827822B932B1296FA010C0160
:107F200087BEE89511244E5F5F4FF1E0A038BF0790
:107F300051F7F601A7BEE89507B600FCFDCF97BE46
:107F4000E89526C08437B1F42ED02DD0F82E2BD052
:107F50003CD0F601EF2C8F010F5F1F4F84911BD097
:107F6000EA94F801C1F70894C11CD11CFA94CF0C13
:107F7000D11C0EC0853739F428D08EE10CD085E9AC
:107F80000AD08FE07ACF813511F488E018D01DD067
:107F900080E101D065CF982F8091C00085FFFCCF94
:107FA0009093C60008958091C00087FFFCCF809118
:107FB000C00084FD01C0A8958091C6000895E0E648
:107FC000F0E098E1908380830895EDDF803219F02E
:107FD00088E0F5DFFFCF84E1DECF1F93182FE3DFCA
:107FE0001150E9F7F2DF1F91089580E0E8DFEE27F6
:047FF000FF270994CA
:027FFE00040479
:0400000300007E007B
:00000001FF
